:0F08FB00484B5F456C656374726F6E6963730081
:03092000DFFE22D5
:1008C500AE07AF061EEF600C7FF51209207FF5120B
:0508D500092080EE2265
:1008EB007580FFC2A4D2A3C2A200D2A2E58033229C
:0C0877007F381208837F051208C57F3807
:100883001208EB40FBC2A4C2A3D2A28F8000C2A273
:010893002242
:1008DA001208EB40FBD2A4C2A3D2A28F8000C2A20C
:0108EA0022EB
:0A0916007F011208837F050208C567
:10083000AE07ED7005EE24808003EE24C0FF1208A1
:1008400083120894FF600C1208DA740129F9E43A63
:04085000FA80EE221A
:1008AD00AE07AC03ED7005EE24808003EE24C0FF8F
:0808BD00120883AF040208DAFF
:100854001208777F051208C51208777F08120883EB
:100864007F011208837F061208831F1208C57F0CBC
:03087400020883F4
:10080000E4F590C2A0C2A1C2B57590FF12085412BF
:1008100009167B6FE4FD7F071208AD7B6B7F081222
:1008200008AD7BFF7A0879FB0D7F0112083080FE4E
:0300000002090AE8
:0C090A00787FE4F6D8FD75810702080034
:10089400BB010689828A83E0225002E722BBFE0262
:0908A400E32289828A83E4932295
:00000001FF
